:040000006F20205FEE
:1000040000000000000000006F20405B6F10B00192
:1000140011BFF9F70000000000000000000000001C
:1000240000000000000000000000000000000000CC
:100034006F200059000000006F20A058000000004D
:100044006F2040586F2020586F2000586F20E057D1
:100054006F20C0576F20A0576F2080576F206057C4
:100064006F2040576F1080496F2000576F20E05673
:100074006F10E0336F20A0566F2080566F206056BB
:100084006F2040566F10A01C6F2000566F20E05563
:100094006F20C055000000000000000000000000B8
:1000A400000000000000000000000000000000004C
:0C00B40000000000000000000000000040
:1000C0003D432A876373C3029377F700BDEFADE525
:1000D000937606FF3D8ABA960CC34CC30CC74CC737
:1000E0004107E36BD7FE11E28280B306C3408A0664
:1000F0009702000096966780A6002307B700A30624
:10010000B7002306B700A305B7002305B700A30473
:10011000B7002304B700A303B7002303B700A3026B
:10012000B7002302B700A301B7002301B700A30063
:10013000B7002300B700828093F5F50F93968500F2
:10014000D58D93960501D58D61B7939627009702BB
:10015000000096968682E78086FA9680C1171D8FEA
:100160003E96E374C3F8A5B77325003082807325EB
:10017000403082807325203482800A85828041113C
:1001800006C65D24B7F700E023AA07007D57D8C74D
:1001900098CBD8C398C71307501098C30521B74709
:1001A0000F0023A4A182938707241306803EB35730
:1001B000F502B240938601831387018223A20600D1
:1001C000232207003355C5029CC208C34101828027
:1001D000B7F700E08C4703A847009847E39CE5FE8B
:1001E000138701831C43544333B7A702B386A60287
:1001F0003697B387A70209E79306200263FEF6024B
:100200009388E7FDB3B7F8007D173385E700B7F7AC
:1002100000E09847D0439447E31DD7FE3306C8401B
:10022000B336C8003387E540158F6366E500E312F7
:10023000A7FEE3F0C8FE828081480145C9BFB7F739
:1002400000E08C4703A847009847E39CE5FE13872E
:1002500001821C43544333B7A702B386A6023697E4
:10026000B387A70209E79306200263FEF60293888C
:10027000E7FDB3B7F8007D173385E700B7F700E077
:100280009847D0439447E31DD7FE3306C840B336A2
:10029000C8003387E540158F6366E500E312A7FECB
:1002A000E3F0C8FE828081480145C9BF011126CA1A
:1002B000B704008093C4F4FF4AC84EC652C406CEA9
:1002C00022CCB37995002A8A2E89ED8C371700400D
:1002D00041E2634605127C4791454E85B3E73701FD
:1002E0007CC7F92637140040634609127C449D45BB
:1002F0002685C58F7CC46D2E3C44C58F3CC43727F2
:10030000B7000544B7160040130727B063560A002C
:1003100065A805046306E400FC42B3F73701F5DB8A
:1003200081454E8571268145268563430908492606
:100330003725B7001305F5AF332585007D15618D91
:10034000F2406244D2444249B249224A0561828065
:1003500063C105087C4791452685C58F7CC7892EDA
:100360003714004063410A087C449D454E85B3E73D
:1003700037017CC4352E3C44B3E737013CC43727F2
:10038000B7000544B7160040130727B063560900AD
:100390002DA005046305E400FC42E58FFDDBE3517D
:1003A0000AF881454E851D2181452685E35109F8CE
:1003B0003129BDBF0504E304E4FEFC52E58FFDDBFB
:1003C000F9BF0504E30FE4FCFC52B3F73701F5DB9A
:1003D000C9BF7C5791452685C58F7CD7C52E37145C
:1003E0000040E3530AF87C549D454E85B3E737013E
:1003F0007CD4E92E3C54B3E737013CD449B77C5751
:1004000091454E85B3E737017CD7C92637140040A4
:10041000E35E09EC7C549D452685C58F7CD47D2602
:100420003C54C58F3CD4E1BDB7470F0093870724E8
:100430003355F502930700051375F50F6306F506AE
:1004400063F3A702930780076307F5089307000A81
:10045000630AF50A93070006630DF50CB717004011
:10046000238007008280F947630CF50E9307C003D1
:10047000630FF510BD47E313F5FEB71700401307F0
:1004800070052380E700130780FA2380E700130735
:1004900020042384E700130700F82385E700B7173B
:1004A0000040238007008280B717004013077005C3
:1004B0002380E700130780FA2380E7001307600416
:1004C0002384E700130720F82385E700B7170040CF
:1004D000238007008280B717004013077005238030
:1004E000E700130780FA2380E70013074004238402
:1004F000E700130720F82385E700B71700402380A3
:1005000007008280B7170040130770052380E700BB
:10051000130780FA2380E700130730042384E700E1
:10052000130720F82385E700B71700402380070052
:100530008280B7170040130770052380E700130778
:1005400080FA2380E700130750042384E700130791
:1005500020F82385E700B71700402380070082803A
:10056000B7170040130770052380E700130780FAD0
:100570002380E700130700042384E700130720F813
:100580002385E700B7170040238007008280B71754
:100590000040130770052380E700130780FA2380CB
:1005A000E700130780042384E700130720F823855E
:1005B000E700B7170040238007008280B71600408D
:1005C00083C7860003C7A600BD8B098B19CB85C7DF
:1005D00083C7860037459C1C130505803345F5020B
:1005E000828099CF83C7860037C5C90113050538B6
:1005F0003345F502828037C5C9011305053882806D
:1006000037851E00130505488280130101DC232E67
:100610001120232C8120232A91202322B12223245C
:10062000C1222326D1222328E122232AF122232CAE
:100630000123232E1123737004305C142A86BE8696
:100640009305F01F08083EC6EF202024635AA0023D
:100650002A8403A5818385671387E7FFB304F50028
:1006600083D70400C207C183B38687006355D702CE
:1006700083A741812286854594470808EF20000D15
:10068000736004308320C12103248121832441210C
:100690001301012482803E9522860C08EF20000C75
:1006A00083D70400A297C207C1832390F400C9B77F
:1006B000A94763E6B70291679387C7B18A05BE95DC
:1006C0009C418287B7170040B44F1347F5FF758FE1
:1006D000B8CFF84B498FF8CBB843598DA8C3828067
:1006E000B7170040B84F498FE5B7B7170040F84B30
:1006F0001345F5FF698FF8CBB84B698FB8CBB8437A
:10070000798DA8C38280B7170040F44F1347F5FFD7
:10071000F98EF4CFF44BF98EF4CBB44B558DA8CBB6
:10072000B443758FB8C38280B7170040F44F1347A6
:10073000F5FFF98EF4CFF44B558DE8CBB44BF98E21
:10074000B4CBB443758FB8C38280B7170040F44F61
:100750001347F5FFC98E75BFB7170040F44F134715
:10076000F5FFC98EC1BFB7170040F44F1347F5FF1F
:10077000C98EF4CFB44FF98EB4CFF44B758FF8CB4C
:10078000B843598DA8C38280B7170040F44F134770
:10079000F5FFC98EF4CFB44FC98EB4CFF44B758F2B
:1007A000F8CBB843598DA8C38280B7170040F44FE7
:1007B0001347F5FFF98EF4CFB44FF98E75BFB71715
:1007C0000040F44F1347F5FFF98EE9B7A94763E6F8
:1007D000B7029167938787B48A05BE959C4182874B
:1007E000B7170040B45F1347F5FF758FB8DFF85BAC
:1007F000498FF8DBB853598DA8D38280B7170040D2
:10080000B85F498FE5B7B7170040F85B1345F5FFB0
:10081000698FF8DBB85B698FB8DBB853798DA8D3E3
:100820008280B7170040F45F1347F5FFF98EF4DFBD
:10083000F45BF98EF4DBB45B558DA8DBB453758F94
:10084000B8D38280B7170040F45F1347F5FFF98EE5
:10085000F4DFF45B558DE8DBB45BF98EB4DBB453A5
:10086000758FB8D38280B7170040F45F1347F5FF48
:10087000C98E75BFB7170040F45F1347F5FFC98EE7
:10088000C1BFB7170040F45F1347F5FFC98EF4DF0F
:10089000B45FF98EB4DFF45B758FF8DBB853598D14
:1008A000A8D38280B7170040F45F1347F5FFC98EC5
:1008B000F4DFB45FC98EB4DFF45B758FF8DBB85337
:1008C000598DA8D38280B7170040F45F1347F5FF16
:1008D000F98EF4DFB45FF98E75BFB7170040F45F8F
:1008E0001347F5FFF98EE9B7B717004003A80704CF
:1008F000B71820000111938808A022CC26CA4AC844
:100900004EC652C406CE3368180123A0070503A8BB
:1009100087058568938808803368180123AC07052C
:1009200003A807042A8A05451368084023A0070581
:100930003A84AE84B28936896138B767004003C70C
:1009400007001377270F2380E70003C70700631C06
:100950000A10136717002380E70083C50700CD8CBA
:100960002380970003C707001377F7072380E7006A
:1009700003C70700136707022380E700B76700403B
:1009800003C70700136727002380E70003C737006A
:1009900013670702A381E70003C737001367170037
:1009A000A381E70003C737001377B70FA381E700E0
:1009B00003C737001377770EA381E70003C717003B
:1009C0001377770EA380E70003C7270063120A0896
:1009D000136717002381E70003C727001367470049
:1009E0002381E70037D7AB03B76700401307F7DE73
:1009F00098D33767450313079778D8D323A23701D5
:100A000023A637011307F4FF23A42701420723A8D5
:100A100027014183239AE700239CE700239B0700DB
:100A2000239D0700239E070003C7170013673700A5
:100A3000A380E700F2406244B7E700E03707001008
:100A400023A0E710D2444249B249224A056182807C
:100A5000136727002381E70003C7270013674700B8
:100A60002381E70041B71377E70F2380E70083C5B1
:100A70000700CD8C2380970003C707001377F70783
:100A80002380E70003C70700136707042380E700FC
:100A9000F5B5B76700403D472384E70203C7170059
:100AA00013674700A380E7008280411122C426C259
:100AB00006C6B7170040130770052380E700130729
:100AC00080FA2380E7001307A0052390E702373759
:100AD00042005507D8D337B700409D471CC3F9677C
:100AE0008D07C98FAA841CC337B400401C441397D8
:100AF000C700E35D07FE0545EFF08FEDB7E70700A0
:100B00009387870CDD8C04C0C1675CC40545EFF09A
:100B10002FEC37B70040232604001C479396B700FC
:100B2000E3DD06FEB240224492444101828041113D
:100B300022C426C206C6B7170040130770052380DB
:100B4000E700130780FA2380E7001307A00523902E
:100B5000E702373742005507D8D337B400409D47E6
:100B6000AA841CC00545EFF0AFE6F9678D07C58F75
:100B70001CC01C441397C700E35D07FE0545EFF05A
:100B80002FE5F9679387070ADD8C04C0B240224441
:100B900092444101828037B700401C479396B700CA
:100BA000E3DD06FE08CF4CC750CB828037B700404C
:100BB0001C479396B700E3DD06FE5C47B7060200CC
:100BC000D58F5CC7828037B700401C47898BF5DF23
:100BD0005C478176FD16F58F5CC737B700405C47F0
:100BE0009396E700E3CD06FE89471CC78280B7B71E
:100BF000004088CF23A6070082806352C00233885A
:100C0000C50037370040A1468347B740E38EF6FE64
:100C1000850583C7F5FF2304F740E39705FF328579
:100C2000828093972500BE958A059181B3D5A50250
:100C30002945B737004005472387E740930670FCF6
:100C4000371700409505B3D5A502C205C18123968B
:100C5000B7402381D7408D46A381D7409306000437
:100C6000A380D7407C4F93E707187CCF3C4393E7A2
:100C700007103CC38280411181451305F0E706C689
:100C800022C43D3481457D559136371400407C5453
:100C9000370740009D45D98F7CD4370540003D364D
:100CA0007C54370780008145D98F7CD4370580007C
:100CB000313E7C5437070001B240D98F7CD42244A6
:100CC000854537050001410111B6B7170040E853CB
:100CD00061811345150005898280371700403C5714
:100CE000B7064000D58F3CD78280371700407C572D
:100CF000B7064000D58F7CD78280411106C622C43A
:100D0000034405009387C18393861184138601846D
:100D10001387E1839305F4FF2380070023800600F7
:100D2000230006002310070093F5F50F1D48636BA1
:100D3000B804238087008D476300F4028347450091
:100D4000834635000144A207D58F2310F700228582
:100D5000B2402244410182808345150011489387A7
:100D6000F5FF93F7F70F636AF8022380B600954703
:100D7000E396F5FC83472500A54663E7F6022300CA
:100D8000F6006DBF37450000130585BD292E0544CB
:100D90002285B2402244410182803745000013057C
:100DA00085C01126094465B7374500001305C5C342
:100DB000DD2C71BF411122C4370400201304041339
:100DC00003D6E1831840B717002026C206C69387D2
:100DD000071BB304C70063E6970683C70184A546D3
:100DE00063E5F60883C6118485456383B6048945A7
:100DF0006384B60695456391B60837180020B71589
:100E00000020939627001308881D86079385851B6D
:100E1000C296AE9798C22390C700AA853A85EF1074
:100E2000F013014504C0B240224492444101828043
:100E3000B717002023A2E720B7170020239AC71C6A
:100E4000E9BF37450000130505CBB12CB240224461
:100E50009244054541018280B717002023AAE71A72
:100E6000B71700202398C71A4DBF37450000130558
:100E700085CF152C094545BF374500001305C5D35F
:100E80001D240D454DB7411106C683470500D1CF3E
:100E9000916811682A87814501451D46938848B9A4
:100EA000130848B793F687009D8BA9C66368F600C0
:100EB0008A07C2979C438287136505080507834705
:100EC0000700EDF3EF00F027B240014541018280B9
:100ED00013650504E5B713650502CDB71365450035
:100EE000F1BF13652500D9BF13650501C1BF1365A7
:100EF0008500E9B7E364F6FC8A07C6979C438287BE
:100F000093E5050865BF93E505044DBF93E505022C
:100F100075B793E505015DB793E5850045B793E5A2
:100F2000450069BF93E5250051BF01458145EF00AC
:100F30005021B24001454101828083C7C1834111E4
:100F400006C621476362F71011678A07130747BB7C
:100F5000BA979C438287B240054541018280B240E6
:100F6000094541018280B935B24001454101828085
:100F7000193FB240014541018280B717002003D6D6
:100F8000071BB717002083A64720B717002003A729
:100F9000471B239CC184B71700201306000223A01F
:100FA000C72023AED18423AAE184B71700209387FA
:100FB000871D1305000223A0F18623810184EF0021
:100FC0001012B240014541018280B24003C5218424
:100FD0004101828023810184EF00F015B240014578
:100FE0004101828023AE01843717002023AA0184A7
:100FF0009307871D232C071C23A00186370500209B
:10100000B716002023A206200566B71600208145EA
:101010001305051B23A2070023A4070023A607002E
:1010200023A8070023AA070023AC070023AE07006C
:1010300023A0070223A2070223AA061AEFF04F8873
:10104000B24001454101828037450000130505C8C3
:101050009928B2400D4541018280B767004003C521
:10106000970219898280B767004083C7A702C18BA6
:1010700091C737050220130505008280371502202D
:10108000130505008280B767004083C7B702C18B94
:1010900091C737150220130505008280370502200D
:1010A00013050500828039713EDA5C1022CC06CE31
:1010B0002A842ED232D436D63AD842DC46DE3EC618
:1010C000293119C93246A28513050004EF108002A8
:1010D000F240624421618280B2452285EF00207B8C
:1010E000F240624421618280411106C622C426C2B8
:1010F0004AC037B4C404413613050440EFF02F88CA
:1011000071659305044013050520213E7D3E63145F
:10111000050E653E1384B1846307050C85470146BF
:10112000856511652300F400EFF04F98B714022095
:1011300013060020814513850400EFE07FF837098E
:10114000022013060020814513050900EFE05FF738
:1011500083470400BDCF13070020930609001386C0
:10116000040081450145EFF02FF803470400B7E77D
:1011700000E0894623A2D710B7B700409306F002DB
:10118000D4C31DCF05651305052055323725022030
:1011900013050500A93C83470400374500001305EB
:1011A000C51599C3093701A0FD3D053E1305401F34
:1011B000EFF0EF881D3E1305401FEFF04F88F5B7A5
:1011C0001307D0020565D8C313050520EFF0FF8D86
:1011D000D9B70147930609001386040081450545E8
:1011E000EFF08FF059B705468565116523000400BF
:1011F000EFF0CF8B25BFB71700201307000237147D
:10120000002023A0E7209307200CB71400202328F8
:10121000F41C894723A6F41CB70700209387C70452
:1012200023AEF184B70700209387C70123AAF18476
:10123000B7070020938707001305000223A0F1865B
:10124000EF00E06983A5C41C0325041DEF00606F57
:10125000C9B5B7B700409C471307000293F7F702E0
:101260006362F71411678A07130707D7BA979C437D
:10127000411122C626C44AC28287374500001305A1
:1012800005F41535B7B60040DC4A371711011307CE
:10129000171192079183638BE70A372722021307FE
:1012A0002722638CE70637450000130545F6E53B2A
:1012B00037B700401C473244A24493F7F7021CC7DB
:1012C00012494101730020303244B7B7004009474A
:1012D00098C7A24412494101730020303244B7B785
:1012E0000040214798C7A2441249410173002030B1
:1012F0003244B7B700401307000298C7A24412490E
:101300004101730020303244B7B70040054798C709
:10131000A24412494101730020309C46B7260220A6
:1013200003C70600898B89C7134707082380E60097
:10133000B7F70220130510082380E720EF001015EF
:10134000B79700400547239AE7069DB73729022043
:101350009305002013050900EF10A04B83D72187C8
:101360001316050103D7A1814182B386C7002A84E1
:10137000E340D7F403A50181930509003E95EF10E2
:10138000E03D83D721873E942399818615B7324467
:10139000B7B700401307F00298C7A24412494101B1
:1013A00073002030B7B700401307F00298C77300EE
:1013B0002030411122C626C44AC2B766004083C706
:1013C00086020947AD8B638DE706637DF7002147F1
:1013D0006396E7042384F6023244A2441249410191
:1013E000730020300547639BE702853909CD0989E1
:1013F0006319050EB7450000938585E23745000067
:10140000130505E34D31B767004005472384E70224
:101410003244A24412494101730020303767004032
:1014200083478702374500001305C5EBAD8B2304C6
:10143000F70295393244A244124941017300203029
:101440002939AA8489312A8989CC93F72400C9E7EC
:10145000B7450000938585E2374500001305C5E5D3
:1014600099311384A18483450400A1CD8547638FFE
:10147000F50637450000130585E83531814789C4F5
:1014800093C7070493F7F70F372702203726220266
:101490001305070013062622930500202300F700FA
:1014A000EFF06FEFEFF08FF0EFF0EFF1B767004084
:1014B00009472384E7023244A244124941017300E0
:1014C00020304A85EFF07F8303470400AA87134743
:1014D00017002300E40065B7B7450000938505E2D7
:1014E000A5BFB7450000938505E209BF4A85B13421
:1014F00003470400AA87134717002300E40041B7FD
:10150000011122CE26CC4ACA4EC852C6379400409A
:101510008347A40093F7070489CF930700042305AA
:10152000F4007244E2445249C249324A05617300F0
:1015300020308347A40093F70702B1CFB7360220CB
:101540001386060003C706008347760083456600BE
:1015500003451600138461842300E400138731845B
:10156000A2072300A700CD8F938441842390F40029
:101570008347040093F70706CDF783470700294701
:1015800093F7F70F6362F71211678A07130747DFB4
:10159000BA979C4382878347A400C18B89EB83471A
:1015A000A400918B85C391472305F4009DBFC147DB
:1015B0002305F4007244E2445249C249324A0561AB
:1015C000730020308347A400898BB9C38345B400DE
:1015D00083C7B1840345B400BD89137505036385D2
:1015E000071685476381F52263870516994763854A
:1015F000F5209D476396F518138621879385018111
:10160000EF00F06FB797004009472385E70011BF4F
:101610008347A400858BE38607F0B717002003A556
:101620000720752CB717002083A5C71CB71700200B
:1016300003A5071D392685472305F400DDB5854739
:10164000938981842380F60085472390F90005471C
:1016500083D7040063F6E70083D704002390F900E2
:1016600003450400138681849385C1841D8116057A
:10167000EF001018B797004003C7270713678700CC
:101680002389E706130700022385E7007244E2443A
:101690005249C249324A0561730020308347040031
:1016A0000947FD8B6365F70E9389818403D7090091
:1016B00045B783C7B184EDFB3745000005471305E7
:1016C000850E2381E18493898184EFF0DF9D03D728
:1016D0000900BDBF93898184894723800600A30048
:1016E00006002390F9000947A5B783473600034554
:1016F0002600A207138681849385C1845D8D93891A
:101700008184EF00900503D7090099B7834704004F
:101710000547FD8B6383E70AD1C70947638AE70A58
:10172000374500001305C50A93898184EFF0BF9700
:1017300003D7090031BF9389818485472380060040
:101740002390F900054729B799C59D4763EAB70279
:10175000EF00702D45BD83C7318415476317F70827
:10176000B737022083C72700A301F40023A6018412
:101770002318040623090406A147A309F40659B552
:10178000374500001305C510EFF0FF91A5BD3745A3
:101790000000130585F993898184EFF0DF9003D76A
:1017A00009007DB537450000130545FD9389818407
:1017B000EFF07F8F03D7090061BD374500001305A7
:1017C000C50193898184EFF01F8E03D7090049B5C5
:1017D0008347360003452600A207C98F85EF93890A
:1017E0008184A92D03D70900A5B51386818493852B
:1017F000C184EF00E07F39B5138601879385C180EE
:10180000EF00D04301B51386018593854180EF0039
:10181000D018CDBB37450000130545069389818458
:10182000EFF07F8803D7090025B537450000130581
:10183000C5EEEFE09FDDEFE05F94AA85374500003D
:10184000130585EFEFE07FDCEFE07F92AA85374557
:101850000000130585F0EFE05FDBEFE0FF90AA8565
:1018600037450000130585F1EFE03FDAEFE09F9088
:10187000AA85374500001305C5F2EFE01FD93745AB
:101880000F0013050524EFE09F9B730020304111EA
:1018900022C4371611013724022026C24AC0AA8466
:1018A0002E8913050400930500201306161106C6A1
:1018B000EFF06FAECA86268693050020130504005C
:1018C000EF00B07CEFF08FAEEFF0EFAF2244B2400C
:1018D000924402491305000641016FE07F8FB797DC
:1018E000004023A0070037E700E0B70600022320EE
:1018F000D710B70620002320D71023800700A3812C
:1019000007002385070003C707001367970023809C
:10191000E70003C70700136707012380E70003C739
:101920000700598D1375F50F2380A7001307700763
:101930002381E7008280B797004019472380E700A2
:101940008280B797004023880700A3880700238977
:101950000700A3890700130700042398E70413076F
:101960000020239AE704239CE704239EE7042390A6
:10197000E7062392E7062394E7062396E706373720
:10198000022013070700D8CB37F7022013070720E0
:10199000D8DB370703201307072098CF37D702205B
:1019A0001307072098DF37E7022013070720D8CF57
:1019B00037B7022013070720D8DF37C702201307E5
:1019C000072098D33797022013070720B8C337A7FB
:1019D000022013070720D8D33777022013070720E8
:1019E000F8C3378702201307072098D737570220FC
:1019F00013070720B8C73767022013070720D8D777
:101A00003737022013070720F8C73747022013078C
:101A1000072098DB2398070623890706A389070672
:101A200013772500630D071803C707011367070421
:101A30002388E700238B0706937745006388071800
:101A4000B797004003C7170113674700A388E70053
:101A5000238D07069377850063830718B7970040A7
:101A600003C7170113670704A388E700238F07063E
:101A700093770501638E0716B797004003C70701E8
:101A8000136747002388E70023810708937705023F
:101A900063890716B797004003C7270113674700FC
:101AA0002389E700238307089377050463840716D7
:101AB000B797004003C7270113750508136707048C
:101AC0002389E70023850708B7970040630F0514B3
:101AD00003C7370113674700A389E7002387070877
:101AE00093F72500638A0714B797004003C70701DF
:101AF000136707082388E700A38B070693F74500C1
:101B000063850714B797004003C7170113674700A1
:101B1000A388E700A38D070693F785006380071469
:101B2000B797004003C7170113670704A388E700AE
:101B3000A38F070693F70501638B0712B797004041
:101B400003C70701136747002388E700A38107083D
:101B500093F7050263860712B797004003C7270172
:101B6000136747002389E700A383070893F7050459
:101B70008DCBB797004003C7270193F5050813677E
:101B800007042389E700A3850708B797004085C5A8
:101B900003C7370113674700A389E700A387070836
:101BA0008280B79700400947A385E70893F50508A9
:101BB000B7970040F1FD0947A387E70882800947EE
:101BC000238BE70693774500E39C07E6B797004031
:101BD0000947238DE70693778500E39107E8B797D8
:101BE00000400947238FE70693770501E39607E84E
:101BF000B797004009472381E70893770502E39BE5
:101C000007E8B797004009472383E708937705045F
:101C1000E39007EAB797004009472385E708137563
:101C20000508B7970040E31505EA09472387E70849
:101C300093F72500E39A07EAB79700400947A38B7B
:101C4000E70693F74500E39F07EAB7970040094787
:101C5000A38DE70693F78500E39407ECB797004060
:101C60000947A38FE70693F70501E39907ECB797B8
:101C700000400947A381E70893F70502E39E07ECBC
:101C8000B79700400947A383E708CDB593077008CD
:101C900063EDA70A9167938707170A053E951C41D4
:101CA0008287B7970040239607082387070882801A
:101CB000B7970040A38B07068280B7970040A38D9B
:101CC00007068280B7970040A38F07068280B797E8
:101CD0000040A38107088280B7970040A3830708CC
:101CE0008280B7970040A38507088280B79700409D
:101CF000A38707088280B7970040239A0706238BA3
:101D000007068280B7970040239C0706238D0706AD
:101D10008280B7970040239E0706238F07068280A4
:101D2000B797004023900708238107088280B79760
:101D3000004023920708238307088280B79700405A
:101D40002394070823850708828037550000130570
:101D5000C5856FF04FB59307700863EBA70C9167CB
:101D6000938707390A053E951C418287B797004043
:101D70002396070809472387E7088280B797004022
:101D80000947A38BE7068280B79700400947A38DD8
:101D9000E7068280B79700400947A38FE706828055
:101DA000B79700400947A381E7088280B7970040B2
:101DB0000947A383E7088280B79700400947A385B6
:101DC000E7088280B79700400947A387E708828029
:101DD000B7970040239A07060947238BE7068280BE
:101DE000B7970040239C07060947238DE7068280AA
:101DF000B7970040239E07060947238FE706828096
:101E0000B79700402390070809472381E70882809D
:101E1000B79700402392070809472383E708828089
:101E2000B79700402394070809472385E708828075
:101E3000375500001305C5856FF0EFA693077008AE
:101E400063E7A71091679387075B0A053E951C41DE
:101E50008287379700408347E70893E737002307D7
:101E6000F7088280379700408347770793E737006A
:101E7000A30BF7068280379700408347B70793E7A5
:101E80003700A30DF7068280379700408347F70796
:101E900093E73700A30FF706828037970040834708
:101EA000370893E73700A301F7088280379700408F
:101EB0008347770893E73700A303F70882803797B3
:101EC00000408347B70893E73700A305F7088280EF
:101ED000379700408347F70893E73700A307F708D1
:101EE0008280379700408347670793E73700230BCB
:101EF000F7068280379700408347A70793E73700AC
:101F0000230DF7068280379700408347E70793E762
:101F10003700230FF7068280379700408347270852
:101F200093E737002301F708828037970040834703
:101F3000670893E737002303F7088280379700404C
:101F40008347A70893E737002305F70882803755B2
:101F50000000130585886FF00F9593170501C18365
:101F6000A183130720026361F70411678A0713072F
:101F7000077DBA979C43828783A601861375F50F68
:101F80009C428DEB828003A7418583D7818598C1D0
:101F9000B1C72310F600828083A7C1859CC183C787
:101FA00007002310F6008280375500001305458E88
:101FB0006FF06F8F8147850793F7F70F139727000F
:101FC000369718436DFB6374F5020A0536951C417C
:101FD0009CC183C707002310F60082808347370027
:101FE00003472700A207D98F2310F6008280828042
:101FF000011122CC06CE26CA4AC84EC6C1472E843D
:102000006301F50863F8A706930700026310F50C57
:10201000835406009307F00332898C4163FD970ACD
:10202000E1C59309000493040004373502204E866D
:10203000130505002527835709000C40858F2310C1
:10204000F900CE950CC0B79700402398970603C7B8
:102050002707134787002389E70603C72707137756
:10206000C70F2389E706F2406244D2444249B2498D
:102070000561828019C5375500001305058BEFF007
:102080008F8223200400B79700402398070603C7D8
:102090002707134787002389E70603C72707137716
:1020A000C70F2389E70603C7370713478700A389AC
:1020B000E70603C737071377C70FA389E706F24080
:1020C0006244D2444249B2490561828093070003C9
:1020D000E313F5FA7DB781C5A689C5D4B9B7231036
:1020E0000600A689B9FC71BFA68793090004930472
:1020F0000004A9B7011106CE22CC26CA930700041A
:102100006301F50293070008630DF5046244F24091
:10211000D244AA85375500001305859205616FE00A
:102120009FF883A4C180B28683D7818113840187FD
:102130002E8673700430035504006372F504898F92
:1021400093950701C18126958927835704003E9501
:102150002310A40073600430F2406244D24405614D
:10216000828083A40181B28683D7A18113842187D1
:102170002E867370043003550400E362F5FC375576
:1021800000001305059636C62EC4EFE0DFF10355B7
:1021900004008145B24622467DB793874186984325
:1021A00001CF11CD93070002630DF50437550000F0
:1021B0001305C59C6FE03FEF984198C365F5411149
:1021C0001305100806C6EFF01FB9EFE0DFE9B70509
:1021D000032013060020938505204923EFE07F8B21
:1021E000B797004003C7770713478700A38BE7061D
:1021F00003C777071377C70FA38BE706B2404101E8
:102200008280B79700400547239AE70603C7670710
:1022100013478700238BE70603C767071377C70FAA
:10222000238BE706828019C9930700026302F50237
:1022300037550000130505AB6FE0FFE69D4763E3EC
:10224000B71E95679387C7988A05BE959C4182877C
:102250009D4763EFB71C95679387C79A8A05BE951C
:102260009C418287B797004003C7F7081347870050
:10227000A387E70803C7F7081377C70FA387E70803
:102280008280B7970040239A070603C76707134762
:102290008700238BE70603C767071377C70F238BD6
:1022A000E7068280B7970040239C070603C7A7076D
:1022B00013478700238DE70603C7A7071377C70FC8
:1022C000238DE7068280B7970040239E070603C749
:1022D000E70713478700238FE70603C7E70713774E
:1022E000C70F238FE7068280B79700402390070827
:1022F00003C72708134787002381E70803C7270878
:102300001377C70F2381E7088280B7970040239295
:10231000070803C76708134787002383E70803C735
:1023200067081377C70F2383E7088280B7970040B9
:102330002394070803C7A708134787002385E708E6
:1023400003C7A7081377C70F2385E7088280B797CD
:1023500000402396070803C7E70813478700238731
:10236000E70803C7E7081377C70F2387E7088280CA
:10237000B797004003C7770713478700A38BE7068B
:1023800003C777071377C70FA38BE7068280B7973A
:10239000004003C7B70713478700A38DE70603C7AD
:1023A000B7071377C70FA38DE7068280B797004062
:1023B00003C7F70713478700A38FE70603C7F7078D
:1023C0001377C70FA38FE7068280B797004003C734
:1023D000370813478700A381E70803C73708137737
:1023E000C70FA381E7088280B797004003C777082B
:1023F00013478700A383E70803C777081377C70F3E
:10240000A383E7088280B797004003C7B708134744
:102410008700A385E70803C7B7081377C70FA3850D
:10242000E708828037550000130585A46FE0BFC719
:10243000375500001305C5A76FE0FFC69387818657
:10244000984321C3930700026317F50283570600E0
:1024500085EF98C1B79700402394070803C7A708E2
:10246000134787002385E70803C7A7081377C70F1B
:102470002385E7088280375500001305859F6FE0AC
:102480009FC2984198C37DBF01114AC806CE22CC95
:1024900026CA4EC6130700203E896374F70013094D
:1024A00000202E84931909018C4193D909013755D5
:1024B0000220B284130505204E864D24B7970040B4
:1024C0002394270903C7A708134787002385E70834
:1024D00003C7A7081377C70F2385E70803D60400AF
:1024E0001C40F240330636412390C40093870720F6
:1024F0001CC06244D2444249B2490561828093873C
:10250000C186984321C3930700026317F5028357DE
:10251000060085EF98C1B79700402396070803C7C8
:10252000E708134787002387E70803C7E7081377FF
:10253000C70F2387E708828037550000130505A2DF
:102540006FE07FB6984198C37DBF01114AC806CE9F
:1025500022CC26CA4EC6130700203E896374F700BA
:10256000130900202E84931909018C4193D9090184
:1025700037350220B284130505204E86C522B79751
:1025800000402396270903C7E708134787002387DE
:10259000E70803C7E7081377C70F2387E70803D6C1
:1025A00004001C40F240330636412390C400938758
:1025B00007201CC06244D2444249B249056182806E
:1025C00001A001A001A001A001A001A001A001A003
:1025D00001A001A001A001A001A001A001A001A0F3
:1025E00001A001A001A001A001A001A001A001A0E3
:1025F00001A097E1FF1F9381E13317210020130110
:1026000061A0172500001305E55697E5FF1F938588
:10261000659F1386018263FAC5008322050023A00B
:10262000550011059105E3EAC5FE13850182970562
:102630000020938565BE6377B50023200500110552
:10264000E36DB5FE17E501201305C59B9715032023
:10265000938545BB6377B500232005001105E36D25
:10266000B5FE9302800873A0023097E2FFFF9382C9
:10267000A29993E212007390523001458145EFE038
:10268000BFA601A0797122D426D24ECE52CC56CA12
:1026900006D64AD05AC85EC6AA84AE8AB2893A849F
:1026A000338AC60201C51C4D91E3192D97270000FE
:1026B000938787446314F404C0408357C400A18BFC
:1026C000B1CF1C48A1CF01497D5BA94B630D4905E2
:1026D000B3872A0183C507001C44FD171CC463D7B8
:1026E0000700184C63CEE704638C75051C40138704
:1026F000170018C02380B7000509C9BF972700003D
:10270000938787416314F400804445BF97270000F6
:102710009387873CE313F4FAC04445B7A285268526
:102720002D2C01494DD1B2502254335539039254C6
:102730000259F249624AD24A424BB24B4561828009
:1027400022862685992AE31965FBF1BF938741818B
:102750003687B2862E86AA8588432DB7B3C7A500D3
:102760008D8B3307C50081E78D4763EEC700AA87CD
:102770006370E50A83C6050085078505A38FD7FE2C
:10278000E3EAE7FE828093763500AA8791CA83C682
:10279000050085078505A38FD7FE93F63700FDB7A3
:1027A0009376C7FF138606FE63F0C70683A3050072
:1027B00083A2450083AF850003AFC50083AE05014A
:1027C00003AE450103A3850183A8C5019385450296
:1027D00023A0770003A8C5FF23A2570023A4F70175
:1027E00023A6E70123A8D70123AAC70123AC6700CA
:1027F00023AE17019387470223AE07FF75B79041B9
:102800009107910523AEC7FEE3EBD7FEE3E4E7F6BD
:102810008280AA95AA876385B70003C7070001E7EE
:102820003385A74082808507FDB71971A2DC86DE5B
:10283000A6DA3284635B06009307B0081CC17D559D
:10284000F6506654D65409618280368693068020FD
:102850002EC42ECC231AD100814519C09305F4FF54
:10286000FD572EC82ECEBA862C00231BF100AA8459
:10287000EF001012FD576355F5009307B0089CC098
:1028800061D0A2472380070065BF938741813687C7
:10289000B2862E86AA85884349BF011122CC26CA5A
:1028A0004AC806CE4EC6AA842E89328401C51C4D64
:1028B00091E3392197270000938707246319F406D1
:1028C000C0401C4C1CC48357C400A18BC9C31C4806
:1028D000BDCF1C4808409379F90F1379F90F1D8D6E
:1028E0005C486346F500A2852685652C2DE51C44D1
:1028F0000505FD171CC41C401387170018C0238052
:1029000037015C486389A7008357C400858B81CB5E
:10291000A9476316F900A285268561240DEDF240D2
:1029200062444A85D2444249B24905618280972770
:1029300000009387671E6314F400804459B79727FB
:10294000000093876719E31EF4F6C0449DBFA2857B
:10295000268521203DDD7D59D9B7411193874181DD
:1029600026C2844322C44AC006C62A892E8489C44A
:102970009C4C99E32685A926972700009387C717C3
:10298000631CF402C0400317C40093170701C183FE
:1029900093F68700B5EE93F607019DEEA547232039
:1029A000F900136707042316E4007D55B240224462
:1029B0009244024941018280972700009387C715FE
:1029C0006314F4008044C1B7972700009387C710B1
:1029D000E31BF4FAC04445BF918B8DC74C5889C99D
:1029E000930744046384F5004A85352B232A0402A7
:1029F0008357C4002322040093F7B7FD2316F40085
:102A00001C481CC08357C40093E787002316F400BA
:102A10001C4881EF8357C4001307002093F7072851
:102A20006385E700A2854A8585218357C40013F793
:102A3000170005C75C4823240400B307F0401CCCF2
:102A40001C480145A5F78317C40013F7070839DFB1
:102A500093E707042316F40089BF898B014791E3AC
:102A6000584818C4F1BF83D7C500011122CC26CA2B
:102A700006CE4AC84EC613F78700AA842E8471EF8B
:102A8000D841634DE000B841634AE0000145F2409F
:102A90006244D2444249B2490561828058547DD78C
:102AA00003A904009396370123A0040063DD060602
:102AB00070488357C400918B99C75C401D8E5C5849
:102AC00099C33C401D8E5C540C50814626858297EC
:102AD000FD570357C400631DF5009440F54763E8B4
:102AE000D706B70740208507B3D7D700858BA5C386
:102AF0001C48232204001CC09317370163D8070029
:102B0000FD576314F5009C4091E368C84C5823A01E
:102B10002401ADDD930744046384F500268521215B
:102B2000232A0402A5B70C50014685462685029744
:102B3000FD572A86E31FF5F69C40A5DF75476385A0
:102B4000E70059476394E70423A0240181B7136782
:102B500007042316E4007D551DBF83A90501E38703
:102B600009F203A905008D8B23A0350133093941F2
:102B7000014791E3D84918C4E35A20F11C540C5082
:102B8000CA864E86268582976349A0008357C40073
:102B900093E707042316F4007DBFAA993309A940DF
:102BA000E1BF9C49B9CF011122CC06CE2A8411C5C0
:102BB0001C4D81E72EC62922B24597270000938736
:102BC000A7F3639BF5004C408397C50095C722850A
:102BD0006244F240056141BD972700009387C7F327
:102BE0006394F5000C44CDB7972700009387C7EE98
:102BF000E39CF5FC4C44C9BFF240624401450561C9
:102C0000828001458280411122C406C62A8423168F
:102C1000B5002317C5002320050023220500232427
:102C200005002322050623280500232A0500232C5E
:102C30000500214681451305C505EFD06FC89717DC
:102C400000009387C7BA5CD097170000938727BD11
:102C50001CD497170000938767C15CD497170000B6
:102C6000938727C400D01CD8B240224441018280FF
:102C700097050000938525F3A9A2411126C21306EA
:102C800080069384F5FFB384C4024AC02E8922C40F
:102C900006C693854407252E2A8401CD23200500EE
:102CA00023222501310508C4138684068145EFD00F
:102CB0002FC12285B24022449244024941018280C0
:102CC0001C4DADE3411106C622C49707000093874F
:102CD00067FA1CD59387C1819C43232405042326CE
:102CE0000504232805046314F50085471CCD2A84B8
:102CF0001D2848C02285052808C422852D2048C4E7
:102D0000484001469145013708440546A545E53D43
:102D100048440946C945C53D85471CCCB2402244BC
:102D200041018280828041119387C18126C2844300
:102D30004AC006C69C4C22C42A8999E32685493795
:102D4000938484048044DC40FD1763D607009C40D4
:102D5000B9CF8440C5BF0317C40039E7C1778507E1
:102D60002322040623200400232204002324040039
:102D70005CC423280400232A0400232C04002146D9
:102D800081451305C405EFD0AFB3232A0402232CD9
:102D9000040223240404232604042285B24022448E
:102DA00092440249410182801304840671BF914517
:102DB0004A85E13588C051FDB1472320F90001441F
:102DC000E9BF797122D44AD052CC56CA5AC85EC6DD
:102DD00006D626D24ECE2A8AAE8A1304850401492D
:102DE000054BFD5B09ECB25022544A8592540259BE
:102DF000F249624AD24A424BB24B45618280044456
:102E000083294400FD1963D409000040E1BF83D742
:102E1000C400637BFB008397E40063877701A6858A
:102E20005285829A3369A90093848406E1BF19719F
:102E3000A6DAAE848395E500A2DC86DE328463DC0C
:102E4000050083D7C40023A0060093F7070885E791
:102E5000930700401DA0300836C6EF00102BB24685
:102E6000E34105FE7247BD67F98F7977BA9793B74B
:102E700017009CC2F1BF930700041CC0F6506654B3
:102E8000D65401450961828083D7C500011122CC47
:102E900006CE26CA4AC8898B2E8489CF930774042C
:102EA0001CC01CC885475CC8F2406244D2444249F9
:102EB0000561828074003000AA84953FA2452A896A
:102EC0002685312201ED8317C40013F7072069FF1F
:102ED000F19B93E727002316F400C9B7970700007A
:102EE000938747D99CD48357C40008C008C893E788
:102EF00007082316F400A2475CC8B24791CF831598
:102F0000E4002685EF00902301C98357C400F19B9C
:102F100093E717002316F4008357C4003369F900C0
:102F20002316240151B7DDC183A7C5FF411122C477
:102F300006C626C21384C5FF63D307003E94AA8445
:102F4000EF00502C938741879C4381EF232204009C
:102F500023AA81862244B2402685924441016F0013
:102F6000902A637EF40014403307D4006396E70090
:102F70009843DC43369718C05CC0D9BFBA87D843A2
:102F800019C3E37DE4FE94433386D700631F8600B4
:102F90001040B29694C33386D700E31DC7FA10439E
:102FA0005843B29694C3D8C375B76375C400B1478C
:102FB0009CC04DB71040B306C4006316D70014433D
:102FC0005843B29614C058C0C0C369B7828001117B
:102FD00026CA93843500F19806CE22CC4AC84EC644
:102FE000A104B14763F5F404B14463E4B4042A894D
:102FF000EF0050219387418798433A8429E49387CF
:1030000081879C4399E781454A85EF00007B23AC8B
:10301000A186A6854A85EF00407AFD5963193507D8
:10302000B1472320F9004A85EF00F01D29A0E3DE17
:1030300004FAB1471CC10145F2406244D2444249FE
:10304000B249056182801C40858F63CF0702AD467F
:1030500063F6F6001CC03E9404C031A05C406313CC
:10306000870223AAF1864A85EF00F0191305B40000
:103070009307440061993307F5405DDF3A94898FE7
:103080001CC05DBF5CC3C5B72287404085BF130429
:1030900035007198E30285FCB305A4404A85312FC1
:1030A000E31C35FBB5BF01114AC803A9850022CC3A
:1030B00052C45AC006CE26CA4EC656C22E84328B81
:1030C000368A63ED260983D7C50013F7074849C739
:1030D00004408C495848AA8AB389B4408D44B384CB
:1030E000E4020947B3C4E402138716004E9763F362
:1030F000E400BA8493F70740D1C3A6855685C13D45
:103100002A890DE5B14723A0FA008357C4007D55F5
:1031100093E707042316F400F2406244D244424984
:10312000B249224A924A024B056182800C484E867F
:10313000EFF0CFE28357C40093F7F7B793E70708A0
:103140002316F4002328240144C84E99B384344143
:103150002320240104C4528963732A015289084040
:103160004A86DA85EF0070051C440145B387274184
:103170001CC41C403E992320240179BF2686568515
:10318000EF0090082A895DFD0C485685693B9DBF7C
:1031900083D7C500717126D34AD14ECF06D722D529
:1031A00052CD56CB5AC95EC762C566C393F70708AE
:1031B000AA892E89B284B1C39C49A1E39305000476
:1031C00036C631352320A9002328A900B24615E1CF
:1031D000B14723A0F9007D55BA502A549A540A5990
:1031E000FA496A4ADA4A4A4BBA4B2A4C9A4C4D6120
:1031F000828093070004232AF90093070002A30C9E
:10320000F1029307000302DA230DF10236CE930B8D
:103210005002972A0000938A2A92054C294B268453
:103220008347040099C3639B7709B30C9440638D73
:103230000C00E6862686CA854E85B535FD576301A6
:10324000F51AD256E69636DA83470400638A0718E1
:10325000FD579304140002D002D63ED202D4A3013B
:10326000010682DC83C5040015465685152F13849C
:103270001400825731E513F7070109C7130700024D
:10328000A301E10613F7870009C71307B002A301E2
:10329000E10683C604001307A002638BE602B2575F
:1032A000268481462546034704009305140013072E
:1032B00007FD6374E6068DC63ED61DA005048DB7D6
:1032C000330555413315AC00C98F3ED0A28459BF98
:1032D000724793064700184336CE634907023AD631
:1032E000034704009307E002631FF7040347140039
:1032F0009307A002631BF702F247090413874700F4
:103300009C433ACE63C107023ED235A83307E04062
:1033100093E727003AD63ED0E1B7B38767038546E7
:103320002E84BA9749B7FD57C5B7050402D2814626
:10333000814725460347040093051400130707FD42
:103340006376E606F1F2834504000D46171500008A
:103350001305057FB12511CD971700009387477E90
:103360001D8D93070004B397A700025505045D8DDA
:103370002AD0834504001946171500001305857CE3
:1033800093041400230CB102212D25C597D7FFFF0C
:10339000938747C795E70257F2471377071009CF7E
:1033A00091073ECED257D2973EDA95BDB3876703D9
:1033B00085462E84BA97BDBF9D07E19BA107D5B76F
:1033C000780897060000938646CE4A860C104E85F4
:1033D00097000000E7000000FD572A8AE314F5FC7F
:1033E0008357C9007D5593F70704E39707DE5255CD
:1033F000E5B3780897060000938626CB4A860C1022
:103400004E85012AD1BF797156CA9C49BA8A98451E
:1034100022D426D24ECE52CC06D64AD05AC85EC648
:10342000AA892E84B284368A63D3E700BA879CC007
:103430000347340419C385079CC01C4093F7070257
:1034400081C79C4089079CC0032904001379690047
:10345000631A0900130B9401FD5B5C449840998F3B
:10346000634CF9041C408346340493F70702B336D7
:10347000D000A5EB13063404D2854E85829AFD5701
:103480006303F5041C4011469840998B54448144D1
:103490006397C700B384E64063D3040081441C44AF
:1034A00018486354F700998FBE94014969047D5B05
:1034B00063982405014509A885465A86D2854E851C
:1034C000829A631E75017D55B2502254925402595E
:1034D000F249624AD24A424BB24B456182800509A9
:1034E000ADBF3307D40013060003A301C70403478D
:1034F000540493871600A2978906A381E7049DBF11
:1035000085462286D2854E85829AE30E65FB0509A3
:1035100045B7797122D426D24AD04ECE06D652CCA7
:1035200056CA5AC8B68983C6850193079006328960
:10353000AA842E8413863504638DF60263E2D706CF
:10354000930780056387F61863EDD7006380062232
:1035500093073004638EF60A930A24042301D404EB
:10356000C9A0930730066385F60A93074006E395E2
:10357000F6FE1C40084393F6070893054500C5C6B0
:103580001C410CC363D807001307D002B307F040F7
:10359000A301E404971600009386465B29476DA8B3
:1035A000930700076383F61663E5D7029307E006E7
:1035B000638AF6189307F006E390F6FA0C401C4372
:1035C00013F80508138547006307080608C39C43E2
:1035D0008DA893075007E383F6FE93078007638A5D
:1035E000F61293073007E399F6F61C43D041814564
:1035F0009386470014C383AA07005685552601C544
:103600003305554148C05C401CC8A301040471A89F
:103610001C43930A2404938647009C4314C323014C
:10362000F4048547D5B793F607041C410CC3B9DAF7
:10363000C207C18781BF93F5050408C3C9D983D7E1
:1036400007001307F0066387E60E971600009386BF
:10365000E64F2947A30104044C400CC463C5050090
:1036600008406D9908C099E3B28A91CDB28AB3F54A
:10367000E702FD1AB69583C505002380BA00B3D5CD
:10368000E70263FFE70AA147631EF7001C40858B32
:1036900091CB58401C4863C7E70093070003A38FF2
:1036A000FAFEFD1A3306564110C84E87CA867000CE
:1036B000A2852685893B7D5A631E450B7D55B250F8
:1036C000225492540259F249624AD24A424B45610D
:1036D0008280A382D50497160000938626470C406B
:1036E000084313F805081C411105630D080208C3BF
:1036F00013F7150001C793E505020CC04147B9FB5C
:103700000C4093F5F5FD0CC0B1B79C4193E707025F
:103710009CC193078007A302F404971600009386C8
:10372000264475BF13F8050408C3E30308FCC20769
:10373000C1837DBF9716000093864641214719BF7C
:10374000AE8735B794411C43CC4913F8060813855E
:1037500047006306080008C39C438CC301A808C344
:1037600093F606049C43F5DA2390B700232804005F
:10377000B28A25BF14485686CA8526858299E30FEA
:1037800045F31C40898B8DE7B2474844E359F5F275
:103790003E8535B785465686CA8526858299E30FCC
:1037A00065F1050A5C443247998FE345FAFEE9BFAB
:1037B000014A930A94017D5BF5B7411122C42A8422
:1037C0002E8597F7FF1F23A707A406C63526FD57AA
:1037D0006319F50097F7FF1F9387C7A39C4391C315
:1037E0001CC0B240224441018280411122C42E8477
:1037F0008395E50006C6AD24634905007C48AA9779
:103800007CC8B2402244410182808357C4007D7746
:103810007D17F98F2316F400EDB783D7C50001118A
:1038200022CC26CA4AC84EC606CE93F70710AA84F1
:103830002E843289B68991C78395E5008946014671
:1038400035228357C4007D777D17F98F2316F40046
:103850008315E4006244F240CE864A86B24942496A
:103860002685D24405613DA8411122C42E8483954A
:10387000E50006C6E528FD570357C400631BF500A5
:10388000FD77FD17F98F2316F400B2402244410161
:1038900082808567D98F2316F40068C8FDB78395A9
:1038A000E50025A8411122C42A842E85B2853686DA
:1038B00097F7FF1F23A0079606C6EFD00FB4FD575A
:1038C0006319F50097F7FF1F9387C7949C4391C333
:1038D0001CC0B240224441018280411122C42A848A
:1038E0002E8597F7FF1F23A7079206C6752AFD5757
:1038F0006319F50097F7FF1F9387C7919C4391C306
:103900001CC0B240224441018280411122C42A8459
:103910002E85B28597F7FF1F23AE078E06C6692A4C
:10392000FD576319F50097F7FF1F9387A78E9C43F8
:1039300091C31CC0B240224441018280411122C483
:103940002A842E8597F7FF1F23A6078C06C6AD2A6B
:10395000FD576319F50097F7FF1F9387A78B9C43CB
:1039600091C31CC0B240224441018280411122C453
:103970002A842E85B285368697F7FF1F23AC0788E9
:1039800006C6992AFD576319F50097F7FF1F93871D
:1039900067889C4391C31CC0B2402244410182808D
:1039A00093F5F50F2A966314C5000145828083477D
:1039B0000500E38DB7FE0505FDB763F3A504B386E7
:1039C000C500637FD5029345F6FF8147FD176393DA
:1039D000F50082803387F600034807003387C7006D
:1039E0002A9723000701DDB73387F50083460700D8
:1039F0003307F50085072300D700E317F6FE828022
:103A00008147E5BF8280828081E5B2856FF02FDC3F
:103A1000011122CC06CE26CA4AC84EC6328401EE17
:103A2000EFF06FD00149F24062444A85D2444249E6
:103A3000B24905618280AE84AA89A9282689E374E7
:103A400085FEA2854E85EFF08FD82A8969DDA6858F
:103A50002286EFE0BFD0A6854E85EFF0CFCCE1B750
:103A6000411122C42A842E85B285368697E7FF1F2E
:103A700023A2077A06C68D28FD576319F50097E73C
:103A8000FF1F938727799C4391C31CC0B2402244F7
:103A90004101828083A7C5FF1385C7FF63D5070057
:103AA000AA959C413E9582809307800517E7FF1FEA
:103AB0002322F7767D5582809307800517E7FF1F45
:103AC000232AF7747D5582809307800517E7FF1F2F
:103AD0002322F774014582809307800517E7FF1FB3
:103AE000232AF7727D5582809307800517E7FF1F11
:103AF0002322F7727D5582809387C1879C4391C7AB
:103B00003E9523AEA1863E85828097E7FF1F93876F
:103B1000A7703E9523AEA1863E858280EA0600000E
:103B200006070000280700004A07000058070000A9
:103B30006607000088070000AA070000BE07000013
:103B4000C4060000E006000006080000220800008D
:103B500044080000660800007408000082080000A5
:103B6000A4080000C6080000DA080000E007000012
:103B7000FC070000BC0E0000E20E0000DC0E00009E
:103B8000EE0E0000E80E0000D60E0000D00E000081
:103B9000B80E0000BC0E0000240F00001E0F000035
:103BA000180F0000120F00000C0F0000060F00009D
:103BB000000F000048100000560F00005E0F0000CC
:103BC000660F0000700F00007A0F0000CA0F00009F
:103BD000D40F0000E40F00004552524F523A2062C9
:103BE00062696F5F6465636F64655F636F6D6D616C
:103BF0006E64282920756E6B6E6F776E20636F6D13
:103C00006D616E640D0A00004552524F523A2062B7
:103C100062696F5F6465636F64655F636F6D6D613B
:103C20006E64282920756E6B6E6F776E20737562D7
:103C300020636F6D6D616E640D0A00004552524F36
:103C4000523A206262696F5F6465636F64655F63A7
:103C50006F6D6D616E64282920737472696E6720C0
:103C600064657363726970746F7220696E646578DD
:103C7000206F7574206F662072616E67650D0A0093
:103C80004552524F523A206262696F5F636F6D6DA9
:103C9000616E645F68616E646C65282920756E6B67
:103CA0006E6F776E20636F6D6D616E640D0A00003C
:103CB0004552524F523A206262696F5F68616E648A
:103CC0006C655F636F6D6D616E642829204E6F2097
:103CD0007370616365206C65667420696E2074681A
:103CE000652064657363726970746F722073746F9A
:103CF00072650D0A000000004552524F523A206290
:103D000062696F5F68616E646C655F636F6D6D6142
:103D10006E64282920737472696E6720646573630A
:103D2000726970746F7220696E646578206F757443
:103D3000206F662072616E67650D0A004552524F12
:103D4000523A206262696F5F68616E646C655F639E
:103D50006F6D6D616E64282920756E6B6E6F776E66
:103D60002073756220636F6D6D616E640D0A0000D3
:103D70008E13000006130000C81200008E1300000E
:103D8000841200008E1300007A1200008E130000CF
:103D9000DC1200008E1300008E1300008E13000052
:103DA0008E1300008E1300008E1300008E1300008F
:103DB0008E1300008E1300008E1300008E1300007F
:103DC0008E1300008E1300008E1300008E1300006F
:103DD0008E1300008E1300008E1300008E1300005F
:103DE0008E1300008E1300008E1300008E1300004F
:103DF000F0120000D41600009C160000A816000067
:103E00000C170000A8160000A8160000EA16000013
:103E1000A81600003E160000B2160000361700007B
:103E20004352435F455252004E554D5F4D4953003A
:103E30005B496E7465727275707420485350495DA9
:103E40002020204572726F72207472616E736D69EA
:103E50007474696E673A2025730D0A005B496E74AD
:103E600065727275707420485350495D202020455A
:103E700072726F7220726563656976696E673A2047
:103E800025730D0A000000004552524F523A20425D
:103E90006F74746F6D20626F617264204853504973
:103EA0002048616E646C65722063757272656E7411
:103EB00020737465703A2025780D0A004552524FE0
:103EC000523A20485350495F49525148616E646CE0
:103ED0006572282920737769746368206869747330
:103EE0002064656661756C740D0A00004861726437
:103EF0004661756C740D0A002053503D30782530B2
:103F000038580D0A00000000204D49453D30782505
:103F10003038580D0A000000204D53544154555379
:103F20003D3078253038580D0A000000204D4341BF
:103F30005553453D3078253038580D0A00000000B3
:103F40005344535F52585F494E545F464C47207C60
:103F5000205344535F52585F4552525F464C470DC1
:103F60000A0000004552524F523A205345524445F0
:103F7000535F49525148616E646C657228292075FF
:103F80006E6B6E6F776E206D61676963206E756D05
:103F90006265720D0A0000004552524F523A20539A
:103FA0004554555020496E74657272757074205571
:103FB00053425F434C4541525F464541545552453B
:103FC00020696E76616C69642072656369706965E9
:103FD0006E7400004552524F523A2053455455508A
:103FE00020496E74657272757074205553425F5328
:103FF00045545F464541545552452028746F7761BA
:104000007264206465766963652920756E696D70D8
:104010006C656D656E746564000000004552524F1A
:10402000523A20534554555020496E74657272754A
:104030007074205553425F5345545F464541545573
:1040400052452028746F7761726420696E746572BE
:10405000666163652920756E696D706C656D656E4E
:10406000746564004552524F523A2053455455509E
:1040700020496E74657272757074205553425F5397
:1040800045545F464541545552452028746F776129
:10409000726420656E64706F696E742920756E6934
:1040A0006D706C656D656E74656400004552524FAD
:1040B000523A20534554555020496E7465727275BA
:1040C0007074205553425F5345545F4645415455E3
:1040D000524520696E76616C69642072656369700F
:1040E00069656E7400000000446576696365206947
:1040F0007320737570706F727465642062792054D8
:104100006F45205C6F2F0D0A000000004552524F92
:10411000523A2055534248535F49525148616E64A8
:104120006C6572282920656E64706F696E742072E8
:10413000657175657374656420282564292068613C
:1041400073206E6F2068616E646C6572206173739A
:104150006F6369617465640D0A000000496E6974DB
:1041600020616C6C20646F6E65210D0A00000000F8
:104170004A1D0000B01C0000BA1C0000C41C000056
:10418000CE1C0000D81C0000E21C0000EC1C00004B
:104190004A1D00004A1D00004A1D00004A1D000083
:1041A0004A1D00004A1D00004A1D00004A1D000073
:1041B0004A1D00004A1D00004A1D00004A1D000063
:1041C0004A1D00004A1D00004A1D00004A1D000053
:1041D0004A1D00004A1D00004A1D00004A1D000043
:1041E0004A1D00004A1D00004A1D00004A1D000033
:1041F0004A1D00004A1D00004A1D00004A1D000023
:104200004A1D00004A1D00004A1D00004A1D000012
:104210004A1D00004A1D00004A1D00004A1D000002
:104220004A1D00004A1D00004A1D00004A1D0000F2
:104230004A1D00004A1D00004A1D00004A1D0000E2
:104240004A1D00004A1D00004A1D00004A1D0000D2
:104250004A1D00004A1D00004A1D00004A1D0000C2
:104260004A1D00004A1D00004A1D00004A1D0000B2
:104270004A1D00004A1D00004A1D00004A1D0000A2
:104280004A1D00004A1D00004A1D00004A1D000092
:104290004A1D00004A1D00004A1D00004A1D000082
:1042A0004A1D00004A1D00004A1D00004A1D000072
:1042B0004A1D00004A1D00004A1D00004A1D000062
:1042C0004A1D00004A1D00004A1D00004A1D000052
:1042D0004A1D00004A1D00004A1D00004A1D000042
:1042E0004A1D00004A1D00004A1D00004A1D000032
:1042F0004A1D00004A1D00004A1D00004A1D000022
:104300004A1D00004A1D00004A1D00004A1D000011
:104310004A1D00004A1D00004A1D00004A1D000001
:104320004A1D00004A1D00004A1D00004A1D0000F1
:104330004A1D00004A1D00004A1D00004A1D0000E1
:104340004A1D00004A1D00004A1D00004A1D0000D1
:104350004A1D00004A1D00004A1D00004A1D0000C1
:104360004A1D00004A1D00004A1D00004A1D0000B1
:104370004A1D0000F61C0000041D0000121D000074
:10438000201D00002E1D00003C1D0000A21C00008E
:10439000301E00007C1D0000881D0000941D0000E0
:1043A000A01D0000AC1D0000B81D0000C41D0000D1
:1043B000301E0000301E0000301E0000301E0000C5
:1043C000301E0000301E0000301E0000301E0000B5
:1043D000301E0000301E0000301E0000301E0000A5
:1043E000301E0000301E0000301E0000301E000095
:1043F000301E0000301E0000301E0000301E000085
:10440000301E0000301E0000301E0000301E000074
:10441000301E0000301E0000301E0000301E000064
:10442000301E0000301E0000301E0000301E000054
:10443000301E0000301E0000301E0000301E000044
:10444000301E0000301E0000301E0000301E000034
:10445000301E0000301E0000301E0000301E000024
:10446000301E0000301E0000301E0000301E000014
:10447000301E0000301E0000301E0000301E000004
:10448000301E0000301E0000301E0000301E0000F4
:10449000301E0000301E0000301E0000301E0000E4
:1044A000301E0000301E0000301E0000301E0000D4
:1044B000301E0000301E0000301E0000301E0000C4
:1044C000301E0000301E0000301E0000301E0000B4
:1044D000301E0000301E0000301E0000301E0000A4
:1044E000301E0000301E0000301E0000301E000094
:1044F000301E0000301E0000301E0000301E000084
:10450000301E0000301E0000301E0000301E000073
:10451000301E0000301E0000301E0000301E000063
:10452000301E0000301E0000301E0000301E000053
:10453000301E0000301E0000301E0000301E000043
:10454000301E0000301E0000301E0000301E000033
:10455000301E0000301E0000301E0000301E000023
:10456000301E0000301E0000301E0000301E000013
:10457000301E0000301E0000301E0000301E000003
:10458000301E0000301E0000301E0000301E0000F3
:10459000301E0000D01D0000E01D0000F01D0000D6
:1045A000001E0000101E0000201E00006C1D0000F8
:1045B0004E1F0000641E0000761E0000881E0000D2
:1045C0009A1E0000AC1E0000BE1E0000D01E00009F
:1045D0004E1F00004E1F00004E1F00004E1F000027
:1045E0004E1F00004E1F00004E1F00004E1F000017
:1045F0004E1F00004E1F00004E1F00004E1F000007
:104600004E1F00004E1F00004E1F00004E1F0000F6
:104610004E1F00004E1F00004E1F00004E1F0000E6
:104620004E1F00004E1F00004E1F00004E1F0000D6
:104630004E1F00004E1F00004E1F00004E1F0000C6
:104640004E1F00004E1F00004E1F00004E1F0000B6
:104650004E1F00004E1F00004E1F00004E1F0000A6
:104660004E1F00004E1F00004E1F00004E1F000096
:104670004E1F00004E1F00004E1F00004E1F000086
:104680004E1F00004E1F00004E1F00004E1F000076
:104690004E1F00004E1F00004E1F00004E1F000066
:1046A0004E1F00004E1F00004E1F00004E1F000056
:1046B0004E1F00004E1F00004E1F00004E1F000046
:1046C0004E1F00004E1F00004E1F00004E1F000036
:1046D0004E1F00004E1F00004E1F00004E1F000026
:1046E0004E1F00004E1F00004E1F00004E1F000016
:1046F0004E1F00004E1F00004E1F00004E1F000006
:104700004E1F00004E1F00004E1F00004E1F0000F5
:104710004E1F00004E1F00004E1F00004E1F0000E5
:104720004E1F00004E1F00004E1F00004E1F0000D5
:104730004E1F00004E1F00004E1F00004E1F0000C5
:104740004E1F00004E1F00004E1F00004E1F0000B5
:104750004E1F00004E1F00004E1F00004E1F0000A5
:104760004E1F00004E1F00004E1F00004E1F000095
:104770004E1F00004E1F00004E1F00004E1F000085
:104780004E1F00004E1F00004E1F00004E1F000075
:104790004E1F00004E1F00004E1F00004E1F000065
:1047A0004E1F00004E1F00004E1F00004E1F000055
:1047B0004E1F0000E21E0000F41E0000061F000055
:1047C000181F00002A1F00003C1F0000521E00009E
:1047D000A81F0000981F0000861F0000781F00001F
:1047E000841F0000841F0000A81F0000A81F0000F5
:1047F000A81F0000A81F0000A81F0000A81F00009D
:10480000A81F0000A81F0000A81F0000A81F00008C
:10481000A81F0000A81F0000A81F0000A81F00007C
:10482000A81F0000A81F0000A81F0000A81F00006C
:10483000A81F0000A81F0000A81F0000A81F00005C
:10484000A81F0000A81F0000A81F0000A81F00004C
:10485000A81F0000841F0000841F00004552524F13
:10486000523A20656E64706F696E745F636C656147
:1048700072282920696E76616C696420617267759F
:104880006D656E74000000004552524F523A20652B
:104890006E64706F696E745F68616C74282920693A
:1048A0006E76616C696420617267756D656E740007
:1048B0004552524F523A206570305F7472616E7388
:1048C00063656976655F616E645F75706461746568
:1048D000282920696E76616C696420756973546F4C
:1048E0006B656E004552524F523A2066696C6C5FA0
:1048F0006275666665725F776974685F6465736325
:10490000726970746F72282920696E76616C6964AF
:104910002064657363726970746F7220726571755B
:1049200065737465640000004552524F523A207519
:10493000736232305F6C6F6728292063616E6E6F1F
:1049400074206C6F67206F6E20676976656E2065D6
:104950006E64706F696E7420282578290D0A000036
:104960004552524F523A2075736232305F6C6F6716
:1049700028292062756666657220616C72656164C3
:10498000792066696C6C65642100000024240000B5
:1049900082220000A4220000C6220000E8220000BB
:1049A0000A2300002C2300004E23000030240000C6
:1049B000702300008E230000AC230000CA230000F7
:1049C000E823000006240000642200004552524FF4
:1049D000523A206570315F7472616E7363656976F7
:1049E000655F616E645F757064617465206465669F
:1049F00061756C74210000004552524F523A206597
:104A000070365F7472616E736D69745F616E645F3E
:104A10007570646174652064656661756C742100ED
:104A20004552524F523A206570375F7472616E730F
:104A30006D69745F616E645F757064617465206434
:104A4000656661756C7421004552524F523A20657B
:104A500070585F68616E646C65725F746F65282959
:104A600020696E76616C696420656E64706F696E32
:104A70007420284F5554290D0A0000004552524F0A
:104A8000523A206570585F68616E646C65725F743D
:104A90006F65282920696E76616C696420656E6493
:104AA000706F696E742028494E290D0A00000000BD
:104AB0004552524F523A206570585F68616E646C7F
:104AC00065725F746F6528292064656661756C7412
:104AD000210D0A000000000000000000000000009E
:104AE00000000000000000000000000000000000C6
:104AF00000000000000000000000000000000000B6
:104B000000000000000000000000000000000000A5
:104B10000000000000000000000000000000000095
:104B20000000000000000000000000000000000085
:104B300000000000232D302B20000000686C4C008A
:104B400065666745464700003031323334353637C5
:104B50003839414243444546000000003031323389
:104B600034353637383961626364656600000000A9
:104B70003801002084000020A0000020B0000020A8
:104B800060000020700000200000000009022E00DC
:104B900001010480640904000004FFFFFF0507050C
:104BA00081020002000705010200020007058602DB
:104BB0000002000705870200020000001201000247
:104BC00000000040371337130042010203010000C8
:104BD0000E0343006F006E0066006900670000006E
:104BE000140349006E0074006500720066006100E5
:104BF000630065001A034D0061006E0075006600D9
:104C000061006300740075007200650072000000AE
:104C10001003500072006F006400750063007400A0
:104C20001C03530065007200690061006C002D00D8
:104C30006E0075006D0062006500720000000000EB
:104C4000F44A0000144B0000D44A000000000000A9
:104C50000000000000000000000000000000000054
:104C60000000000000000000000000000000000044
:104C70000000000000000000000000000000000034
:104C80000000000000000000000000000000000024
:104C90000000000000000000000000000000000014
:104CA000B001002010120020040309040022032098
:104CB00000120320CC00002000100010CC000020C7
:00000001FF
